{
  "contractName": "DocumentVerificationWithIPFS",
  "abi": [
    {
      "inputs": [],
      "stateMutability": "nonpayable",
      "type": "constructor"
    },
    {
      "anonymous": false,
      "inputs": [
        {
          "indexed": false,
          "internalType": "string",
          "name": "fileName",
          "type": "string"
        },
        {
          "indexed": false,
          "internalType": "string",
          "name": "hash",
          "type": "string"
        },
        {
          "indexed": false,
          "internalType": "string",
          "name": "ipfsCid",
          "type": "string"
        }
      ],
      "name": "DocumentStored",
      "type": "event"
    },
    {
      "anonymous": false,
      "inputs": [
        {
          "indexed": false,
          "internalType": "string",
          "name": "fileName",
          "type": "string"
        },
        {
          "indexed": false,
          "internalType": "bool",
          "name": "verified",
          "type": "bool"
        }
      ],
      "name": "DocumentVerified",
      "type": "event"
    },
    {
      "inputs": [],
      "name": "owner",
      "outputs": [
        {
          "internalType": "address",
          "name": "",
          "type": "address"
        }
      ],
      "stateMutability": "view",
      "type": "function",
      "constant": true
    },
    {
      "inputs": [
        {
          "internalType": "string",
          "name": "fileName",
          "type": "string"
        },
        {
          "internalType": "string",
          "name": "hash",
          "type": "string"
        },
        {
          "internalType": "string",
          "name": "ipfsCid",
          "type": "string"
        }
      ],
      "name": "storeDocument",
      "outputs": [],
      "stateMutability": "nonpayable",
      "type": "function"
    },
    {
      "inputs": [
        {
          "internalType": "string",
          "name": "fileName",
          "type": "string"
        }
      ],
      "name": "getDocument",
      "outputs": [
        {
          "internalType": "string",
          "name": "hash",
          "type": "string"
        },
        {
          "internalType": "string",
          "name": "ipfsCid",
          "type": "string"
        },
        {
          "internalType": "uint256",
          "name": "timestamp",
          "type": "uint256"
        },
        {
          "internalType": "bool",
          "name": "exists",
          "type": "bool"
        }
      ],
      "stateMutability": "view",
      "type": "function",
      "constant": true
    },
    {
      "inputs": [
        {
          "internalType": "string",
          "name": "fileName",
          "type": "string"
        },
        {
          "internalType": "string",
          "name": "hash",
          "type": "string"
        }
      ],
      "name": "verifyDocument",
      "outputs": [
        {
          "internalType": "bool",
          "name": "",
          "type": "bool"
        }
      ],
      "stateMutability": "nonpayable",
      "type": "function"
    }
  ],
  "bytecode": "0x608060405234801561001057600080fd5b5033600160006101000a81548173ffffffffffffffffffffffffffffffffffffffff021916908373ffffffffffffffffffffffffffffffffffffffff1602179055506111f5806100616000396000f3fe608060405234801561001057600080fd5b506004361061004c5760003560e01c80637ccb6a64146100515780638da5cb5b14610084578063a4ca650b146100a2578063f2d893e4146100d2575b600080fd5b61006b600480360381019061006691906108c5565b6100ee565b60405161007b94939291906109c1565b60405180910390f35b61008c61028d565b6040516100999190610a55565b60405180910390f35b6100bc60048036038101906100b79190610a70565b6102b3565b6040516100c99190610ae8565b60405180910390f35b6100ec60048036038101906100e79190610b03565b6104c5565b005b606080600080600080866040516101059190610be6565b908152602001604051809103902060405180608001604052908160008201805461012e90610c2c565b80601f016020809104026020016040519081016040528092919081815260200182805461015a90610c2c565b80156101a75780601f1061017c576101008083540402835291602001916101a7565b820191906000526020600020905b81548152906001019060200180831161018a57829003601f168201915b505050505081526020016001820180546101c090610c2c565b80601f01602080910402602001604051908101604052809291908181526020018280546101ec90610c2c565b80156102395780601f1061020e57610100808354040283529160200191610239565b820191906000526020600020905b81548152906001019060200180831161021c57829003601f168201915b50505050508152602001600282015481526020016003820160009054906101000a900460ff161515151581525050905080600001518160200151826040015183606001519450945094509450509193509193565b600160009054906101000a900473ffffffffffffffffffffffffffffffffffffffff1681565b6000806000846040516102c69190610be6565b90815260200160405180910390206040518060800160405290816000820180546102ef90610c2c565b80601f016020809104026020016040519081016040528092919081815260200182805461031b90610c2c565b80156103685780601f1061033d57610100808354040283529160200191610368565b820191906000526020600020905b81548152906001019060200180831161034b57829003601f168201915b5050505050815260200160018201805461038190610c2c565b80601f01602080910402602001604051908101604052809291908181526020018280546103ad90610c2c565b80156103fa5780601f106103cf576101008083540402835291602001916103fa565b820191906000526020600020905b8154815290600101906020018083116103dd57829003601f168201915b50505050508152602001600282015481526020016003820160009054906101000a900460ff161515151581525050905060008360405160200161043d9190610be6565b6040516020818303038152906040528051906020012082600001516040516020016104689190610be6565b604051602081830303815290604052805190602001201490507fcf184183f6d011925cc3545fa45d06d1ed971de8bc3d60033907db9acfb41bc485826040516104b2929190610c5d565b60405180910390a1809250505092915050565b600160009054906101000a900473ffffffffffffffffffffffffffffffffffffffff1673ffffffffffffffffffffffffffffffffffffffff163373ffffffffffffffffffffffffffffffffffffffff1614610555576040517f08c379a000000000000000000000000000000000000000000000000000000000815260040161054c90610cff565b60405180910390fd5b6000835111610599576040517f08c379a000000000000000000000000000000000000000000000000000000000815260040161059090610d6b565b60405180910390fd5b60008251116105dd576040517f08c379a00000000000000000000000000000000000000000000000000000000081526004016105d490610dd7565b60405180910390fd5b6000815111610621576040517f08c379a000000000000000000000000000000000000000000000000000000000815260040161061890610e43565b60405180910390fd5b6000836040516106319190610be6565b908152602001604051809103902060030160009054906101000a900460ff1615610690576040517f08c379a000000000000000000000000000000000000000000000000000000000815260040161068790610ed5565b60405180910390fd5b6040518060800160405280838152602001828152602001428152602001600115158152506000846040516106c49190610be6565b908152602001604051809103902060008201518160000190816106e791906110a1565b5060208201518160010190816106fd91906110a1565b506040820151816002015560608201518160030160006101000a81548160ff0219169083151502179055509050507fd1713aad3d9289a3c944574f5752da316bed6ec3eaed1a264c84717c4f2f5e1c83838360405161075e93929190611173565b60405180910390a1505050565b6000604051905090565b600080fd5b600080fd5b600080fd5b600080fd5b6000601f19601f8301169050919050565b7f4e487b7100000000000000000000000000000000000000000000000000000000600052604160045260246000fd5b6107d282610789565b810181811067ffffffffffffffff821117156107f1576107f061079a565b5b80604052505050565b600061080461076b565b905061081082826107c9565b919050565b600067ffffffffffffffff8211156108305761082f61079a565b5b61083982610789565b9050602081019050919050565b82818337600083830152505050565b600061086861086384610815565b6107fa565b90508281526020810184848401111561088457610883610784565b5b61088f848285610846565b509392505050565b600082601f8301126108ac576108ab61077f565b5b81356108bc848260208601610855565b91505092915050565b6000602082840312156108db576108da610775565b5b600082013567ffffffffffffffff8111156108f9576108f861077a565b5b61090584828501610897565b91505092915050565b600081519050919050565b600082825260208201905092915050565b60005b8381101561094857808201518184015260208101905061092d565b60008484015250505050565b600061095f8261090e565b6109698185610919565b935061097981856020860161092a565b61098281610789565b840191505092915050565b6000819050919050565b6109a08161098d565b82525050565b60008115159050919050565b6109bb816109a6565b82525050565b600060808201905081810360008301526109db8187610954565b905081810360208301526109ef8186610954565b90506109fe6040830185610997565b610a0b60608301846109b2565b95945050505050565b600073ffffffffffffffffffffffffffffffffffffffff82169050919050565b6000610a3f82610a14565b9050919050565b610a4f81610a34565b82525050565b6000602082019050610a6a6000830184610a46565b92915050565b60008060408385031215610a8757610a86610775565b5b600083013567ffffffffffffffff811115610aa557610aa461077a565b5b610ab185828601610897565b925050602083013567ffffffffffffffff811115610ad257610ad161077a565b5b610ade85828601610897565b9150509250929050565b6000602082019050610afd60008301846109b2565b92915050565b600080600060608486031215610b1c57610b1b610775565b5b600084013567ffffffffffffffff811115610b3a57610b3961077a565b5b610b4686828701610897565b935050602084013567ffffffffffffffff811115610b6757610b6661077a565b5b610b7386828701610897565b925050604084013567ffffffffffffffff811115610b9457610b9361077a565b5b610ba086828701610897565b9150509250925092565b600081905092915050565b6000610bc08261090e565b610bca8185610baa565b9350610bda81856020860161092a565b80840191505092915050565b6000610bf28284610bb5565b915081905092915050565b7f4e487b7100000000000000000000000000000000000000000000000000000000600052602260045260246000fd5b60006002820490506001821680610c4457607f821691505b602082108103610c5757610c56610bfd565b5b50919050565b60006040820190508181036000830152610c778185610954565b9050610c8660208301846109b2565b9392505050565b7f4f6e6c79206f776e65722063616e2063616c6c20746869732066756e6374696f60008201527f6e00000000000000000000000000000000000000000000000000000000000000602082015250565b6000610ce9602183610919565b9150610cf482610c8d565b604082019050919050565b60006020820190508181036000830152610d1881610cdc565b9050919050565b7f46696c65206e616d652063616e6e6f7420626520656d70747900000000000000600082015250565b6000610d55601983610919565b9150610d6082610d1f565b602082019050919050565b60006020820190508181036000830152610d8481610d48565b9050919050565b7f486173682063616e6e6f7420626520656d707479000000000000000000000000600082015250565b6000610dc1601483610919565b9150610dcc82610d8b565b602082019050919050565b60006020820190508181036000830152610df081610db4565b9050919050565b7f49504653204349442063616e6e6f7420626520656d7074790000000000000000600082015250565b6000610e2d601883610919565b9150610e3882610df7565b602082019050919050565b60006020820190508181036000830152610e5c81610e20565b9050919050565b7f446f63756d656e7420776974682074686973206e616d6520616c72656164792060008201527f6578697374730000000000000000000000000000000000000000000000000000602082015250565b6000610ebf602683610919565b9150610eca82610e63565b604082019050919050565b60006020820190508181036000830152610eee81610eb2565b9050919050565b60008190508160005260206000209050919050565b60006020601f8301049050919050565b600082821b905092915050565b600060088302610f577fffffffffffffffffffffffffffffffffffffffffffffffffffffffffffffffff82610f1a565b610f618683610f1a565b95508019841693508086168417925050509392505050565b6000819050919050565b6000610f9e610f99610f948461098d565b610f79565b61098d565b9050919050565b6000819050919050565b610fb883610f83565b610fcc610fc482610fa5565b848454610f27565b825550505050565b600090565b610fe1610fd4565b610fec818484610faf565b505050565b5b8181101561101057611005600082610fd9565b600181019050610ff2565b5050565b601f8211156110555761102681610ef5565b61102f84610f0a565b8101602085101561103e578190505b61105261104a85610f0a565b830182610ff1565b50505b505050565b600082821c905092915050565b60006110786000198460080261105a565b1980831691505092915050565b60006110918383611067565b9150826002028217905092915050565b6110aa8261090e565b67ffffffffffffffff8111156110c3576110c261079a565b5b6110cd8254610c2c565b6110d8828285611014565b600060209050601f83116001811461110b57600084156110f9578287015190505b6111038582611085565b86555061116b565b601f19841661111986610ef5565b60005b828110156111415784890151825560018201915060208501945060208101905061111c565b8683101561115e578489015161115a601f891682611067565b8355505b6001600288020188555050505b505050505050565b6000606082019050818103600083015261118d8186610954565b905081810360208301526111a18185610954565b905081810360408301526111b58184610954565b905094935050505056fea264697066735822122094e88ab7abdf230884f7b176527b154d7ff7f38c3cbf9c9e3274123f86906a7064736f6c63430008130033",
  "immutableReferences": {},
  "source": "// SPDX-License-Identifier: MIT\r\npragma solidity ^0.8.19;\r\n\r\ncontract DocumentVerificationWithIPFS {\r\n    struct Document {\r\n        string hash;\r\n        string ipfsCid;\r\n        uint256 timestamp;\r\n        bool exists;\r\n    }\r\n    \r\n    mapping(string => Document) private documents;\r\n    address public owner;\r\n    \r\n    event DocumentStored(string fileName, string hash, string ipfsCid);\r\n    event DocumentVerified(string fileName, bool verified);\r\n    \r\n    constructor() {\r\n        owner = msg.sender;\r\n    }\r\n    \r\n    modifier onlyOwner() {\r\n        require(msg.sender == owner, \"Only owner can call this function\");\r\n        _;\r\n    }\r\n    \r\n    function storeDocument(string memory fileName, string memory hash, string memory ipfsCid) public onlyOwner {\r\n        // Check fileName is not empty\r\n        require(bytes(fileName).length > 0, \"File name cannot be empty\");\r\n        \r\n        // Check hash is valid\r\n        require(bytes(hash).length > 0, \"Hash cannot be empty\");\r\n        \r\n        // Check ipfsCid is valid\r\n        require(bytes(ipfsCid).length > 0, \"IPFS CID cannot be empty\");\r\n        \r\n        // Check if fileName already exists\r\n        require(!documents[fileName].exists, \"Document with this name already exists\");\r\n        \r\n        documents[fileName] = Document({\r\n            hash: hash,\r\n            ipfsCid: ipfsCid,\r\n            timestamp: block.timestamp,\r\n            exists: true\r\n        });\r\n        emit DocumentStored(fileName, hash, ipfsCid);\r\n    }\r\n    \r\n    function getDocument(string memory fileName) public view returns (string memory hash, string memory ipfsCid, uint256 timestamp, bool exists) {\r\n        Document memory doc = documents[fileName];\r\n        return (doc.hash, doc.ipfsCid, doc.timestamp, doc.exists);\r\n    }\r\n    \r\n    function verifyDocument(string memory fileName, string memory hash) public returns (bool) {\r\n        Document memory doc = documents[fileName];\r\n        bool verified = keccak256(abi.encodePacked(doc.hash)) == keccak256(abi.encodePacked(hash));\r\n        emit DocumentVerified(fileName, verified);\r\n        return verified;\r\n    }\r\n}",
  "sourcePath": "C:\\Karan\\project_Enge\\BlockChain\\blockchain-pdf-verification\\truffle-contracts\\contracts\\DocumentVerification.sol",
  "compiler": {
    "name": "solc",
    "version": "0.8.19+commit.7dd6d404.Emscripten.clang"
  },
  "schemaVersion": "3.4.16",
  "updatedAt": "2025-04-13T17:22:39.224Z",
  "networkType": "ethereum",
  "devdoc": {
    "kind": "dev",
    "methods": {},
    "version": 1
  },
  "userdoc": {
    "kind": "user",
    "methods": {},
    "version": 1
  }
}